{
  "_format": "hh-sol-artifact-1",
  "contractName": "Vault",
  "sourceName": "contracts/Vault.sol",
  "abi": [
    {
      "inputs": [
        {
          "internalType": "address",
          "name": "_asset",
          "type": "address"
        }
      ],
      "stateMutability": "nonpayable",
      "type": "constructor"
    },
    {
      "inputs": [],
      "name": "asset",
      "outputs": [
        {
          "internalType": "contract IERC20",
          "name": "",
          "type": "address"
        }
      ],
      "stateMutability": "view",
      "type": "function"
    },
    {
      "inputs": [
        {
          "internalType": "address",
          "name": "",
          "type": "address"
        }
      ],
      "name": "balanceOf",
      "outputs": [
        {
          "internalType": "uint256",
          "name": "",
          "type": "uint256"
        }
      ],
      "stateMutability": "view",
      "type": "function"
    },
    {
      "inputs": [
        {
          "internalType": "uint256",
          "name": "_amount",
          "type": "uint256"
        }
      ],
      "name": "deposit",
      "outputs": [],
      "stateMutability": "nonpayable",
      "type": "function"
    },
    {
      "inputs": [],
      "name": "totalSupply",
      "outputs": [
        {
          "internalType": "uint256",
          "name": "",
          "type": "uint256"
        }
      ],
      "stateMutability": "view",
      "type": "function"
    },
    {
      "inputs": [
        {
          "internalType": "uint256",
          "name": "_shares",
          "type": "uint256"
        }
      ],
      "name": "withdraw",
      "outputs": [],
      "stateMutability": "nonpayable",
      "type": "function"
    }
  ],
  "bytecode": "0x60a060405234801561001057600080fd5b50604051610a69380380610a69833981810160405281019061003291906100cf565b8073ffffffffffffffffffffffffffffffffffffffff1660808173ffffffffffffffffffffffffffffffffffffffff1681525050506100fc565b600080fd5b600073ffffffffffffffffffffffffffffffffffffffff82169050919050565b600061009c82610071565b9050919050565b6100ac81610091565b81146100b757600080fd5b50565b6000815190506100c9816100a3565b92915050565b6000602082840312156100e5576100e461006c565b5b60006100f3848285016100ba565b91505092915050565b6080516109366101336000396000818161010c015281816101c70152818161026a015281816102b9015261037801526109366000f3fe608060405234801561001057600080fd5b50600436106100575760003560e01c806318160ddd1461005c5780632e1a7d4d1461007a57806338d52e0f1461009657806370a08231146100b4578063b6b55f25146100e4575b600080fd5b610064610100565b6040516100719190610518565b60405180910390f35b610094600480360381019061008f9190610564565b610106565b005b61009e610268565b6040516100ab9190610610565b60405180910390f35b6100ce60048036038101906100c99190610669565b61028c565b6040516100db9190610518565b60405180910390f35b6100fe60048036038101906100f99190610564565b6102a4565b005b60005481565b600080547f000000000000000000000000000000000000000000000000000000000000000073ffffffffffffffffffffffffffffffffffffffff166370a08231306040518263ffffffff1660e01b815260040161016391906106a5565b602060405180830381865afa158015610180573d6000803e3d6000fd5b505050506040513d601f19601f820116820180604052508101906101a491906106d5565b836101af9190610731565b6101b991906107a2565b90506101c5338361041b565b7f000000000000000000000000000000000000000000000000000000000000000073ffffffffffffffffffffffffffffffffffffffff1663a9059cbb33836040518363ffffffff1660e01b81526004016102209291906107d3565b6020604051808303816000875af115801561023f573d6000803e3d6000fd5b505050506040513d601f19601f820116820180604052508101906102639190610834565b505050565b7f000000000000000000000000000000000000000000000000000000000000000081565b60016020528060005260406000206000915090505481565b600080600054036102b75781905061036c565b7f000000000000000000000000000000000000000000000000000000000000000073ffffffffffffffffffffffffffffffffffffffff166370a08231306040518263ffffffff1660e01b815260040161031091906106a5565b602060405180830381865afa15801561032d573d6000803e3d6000fd5b505050506040513d601f19601f8201168201806040525081019061035191906106d5565b6000548361035f9190610731565b61036991906107a2565b90505b610376338261048d565b7f000000000000000000000000000000000000000000000000000000000000000073ffffffffffffffffffffffffffffffffffffffff166323b872dd3330856040518463ffffffff1660e01b81526004016103d393929190610861565b6020604051808303816000875af11580156103f2573d6000803e3d6000fd5b505050506040513d601f19601f820116820180604052508101906104169190610834565b505050565b8060008082825461042c9190610898565b9250508190555080600160008473ffffffffffffffffffffffffffffffffffffffff1673ffffffffffffffffffffffffffffffffffffffff16815260200190815260200160002060008282546104829190610898565b925050819055505050565b8060008082825461049e91906108cc565b9250508190555080600160008473ffffffffffffffffffffffffffffffffffffffff1673ffffffffffffffffffffffffffffffffffffffff16815260200190815260200160002060008282546104f491906108cc565b925050819055505050565b6000819050919050565b610512816104ff565b82525050565b600060208201905061052d6000830184610509565b92915050565b600080fd5b610541816104ff565b811461054c57600080fd5b50565b60008135905061055e81610538565b92915050565b60006020828403121561057a57610579610533565b5b60006105888482850161054f565b91505092915050565b600073ffffffffffffffffffffffffffffffffffffffff82169050919050565b6000819050919050565b60006105d66105d16105cc84610591565b6105b1565b610591565b9050919050565b60006105e8826105bb565b9050919050565b60006105fa826105dd565b9050919050565b61060a816105ef565b82525050565b60006020820190506106256000830184610601565b92915050565b600061063682610591565b9050919050565b6106468161062b565b811461065157600080fd5b50565b6000813590506106638161063d565b92915050565b60006020828403121561067f5761067e610533565b5b600061068d84828501610654565b91505092915050565b61069f8161062b565b82525050565b60006020820190506106ba6000830184610696565b92915050565b6000815190506106cf81610538565b92915050565b6000602082840312156106eb576106ea610533565b5b60006106f9848285016106c0565b91505092915050565b7f4e487b7100000000000000000000000000000000000000000000000000000000600052601160045260246000fd5b600061073c826104ff565b9150610747836104ff565b9250828202610755816104ff565b9150828204841483151761076c5761076b610702565b5b5092915050565b7f4e487b7100000000000000000000000000000000000000000000000000000000600052601260045260246000fd5b60006107ad826104ff565b91506107b8836104ff565b9250826107c8576107c7610773565b5b828204905092915050565b60006040820190506107e86000830185610696565b6107f56020830184610509565b9392505050565b60008115159050919050565b610811816107fc565b811461081c57600080fd5b50565b60008151905061082e81610808565b92915050565b60006020828403121561084a57610849610533565b5b60006108588482850161081f565b91505092915050565b60006060820190506108766000830186610696565b6108836020830185610696565b6108906040830184610509565b949350505050565b60006108a3826104ff565b91506108ae836104ff565b92508282039050818111156108c6576108c5610702565b5b92915050565b60006108d7826104ff565b91506108e2836104ff565b92508282019050808211156108fa576108f9610702565b5b9291505056fea26469706673582212203cdadb3c497655429d2230f5253bf8431c6504bf588b9fd706db63d60a1a73a764736f6c63430008110033",
  "linkReferences": {},
  "deployedLinkReferences": {}
}